{
    "abi": [
        {
            "type": "function",
            "name": "GetL",
            "inputs": [],
            "outputs": [
                {
                    "name": "",
                    "type": "address",
                    "internalType": "address"
                }
            ],
            "stateMutability": "view"
        },
        {
            "type": "function",
            "name": "GetXL",
            "inputs": [],
            "outputs": [
                {
                    "name": "",
                    "type": "address",
                    "internalType": "address"
                }
            ],
            "stateMutability": "view"
        },
        {
            "type": "function",
            "name": "L",
            "inputs": [],
            "outputs": [
                {
                    "name": "",
                    "type": "address",
                    "internalType": "contract IERC20"
                }
            ],
            "stateMutability": "view"
        },
        {
            "type": "function",
            "name": "UPGRADE_INTERFACE_VERSION",
            "inputs": [],
            "outputs": [
                {
                    "name": "",
                    "type": "string",
                    "internalType": "string"
                }
            ],
            "stateMutability": "view"
        },
        {
            "type": "function",
            "name": "XL",
            "inputs": [],
            "outputs": [
                {
                    "name": "",
                    "type": "address",
                    "internalType": "contract IERC20"
                }
            ],
            "stateMutability": "view"
        },
        {
            "type": "function",
            "name": "emergencyWithdraw",
            "inputs": [
                {
                    "name": "tokenAddress",
                    "type": "address",
                    "internalType": "address"
                },
                {
                    "name": "to",
                    "type": "address",
                    "internalType": "address"
                },
                {
                    "name": "amount",
                    "type": "uint256",
                    "internalType": "uint256"
                }
            ],
            "outputs": [],
            "stateMutability": "nonpayable"
        },
        {
            "type": "function",
            "name": "initialize",
            "inputs": [
                {
                    "name": "_XL",
                    "type": "address",
                    "internalType": "address"
                },
                {
                    "name": "_L",
                    "type": "address",
                    "internalType": "address"
                },
                {
                    "name": "initialOwner",
                    "type": "address",
                    "internalType": "address"
                }
            ],
            "outputs": [],
            "stateMutability": "nonpayable"
        },
        {
            "type": "function",
            "name": "lock",
            "inputs": [
                {
                    "name": "tokenAddress",
                    "type": "address",
                    "internalType": "address"
                },
                {
                    "name": "amount",
                    "type": "uint256",
                    "internalType": "uint256"
                }
            ],
            "outputs": [],
            "stateMutability": "payable"
        },
        {
            "type": "function",
            "name": "lockCounter",
            "inputs": [],
            "outputs": [
                {
                    "name": "",
                    "type": "uint256",
                    "internalType": "uint256"
                }
            ],
            "stateMutability": "view"
        },
        {
            "type": "function",
            "name": "lockRecords",
            "inputs": [
                {
                    "name": "",
                    "type": "uint256",
                    "internalType": "uint256"
                }
            ],
            "outputs": [
                {
                    "name": "user",
                    "type": "address",
                    "internalType": "address"
                },
                {
                    "name": "tokenAddress",
                    "type": "address",
                    "internalType": "address"
                },
                {
                    "name": "amount",
                    "type": "uint256",
                    "internalType": "uint256"
                },
                {
                    "name": "withdrawn",
                    "type": "bool",
                    "internalType": "bool"
                }
            ],
            "stateMutability": "view"
        },
        {
            "type": "function",
            "name": "owner",
            "inputs": [],
            "outputs": [
                {
                    "name": "",
                    "type": "address",
                    "internalType": "address"
                }
            ],
            "stateMutability": "view"
        },
        {
            "type": "function",
            "name": "pause",
            "inputs": [],
            "outputs": [],
            "stateMutability": "nonpayable"
        },
        {
            "type": "function",
            "name": "paused",
            "inputs": [],
            "outputs": [
                {
                    "name": "",
                    "type": "bool",
                    "internalType": "bool"
                }
            ],
            "stateMutability": "view"
        },
        {
            "type": "function",
            "name": "proxiableUUID",
            "inputs": [],
            "outputs": [
                {
                    "name": "",
                    "type": "bytes32",
                    "internalType": "bytes32"
                }
            ],
            "stateMutability": "view"
        },
        {
            "type": "function",
            "name": "renounceOwnership",
            "inputs": [],
            "outputs": [],
            "stateMutability": "nonpayable"
        },
        {
            "type": "function",
            "name": "setLTokenAddress",
            "inputs": [
                {
                    "name": "_L",
                    "type": "address",
                    "internalType": "address"
                }
            ],
            "outputs": [],
            "stateMutability": "nonpayable"
        },
        {
            "type": "function",
            "name": "setVersion",
            "inputs": [
                {
                    "name": "newVersion",
                    "type": "uint256",
                    "internalType": "uint256"
                }
            ],
            "outputs": [],
            "stateMutability": "nonpayable"
        },
        {
            "type": "function",
            "name": "setXLTokenAddress",
            "inputs": [
                {
                    "name": "_XL",
                    "type": "address",
                    "internalType": "address"
                }
            ],
            "outputs": [],
            "stateMutability": "nonpayable"
        },
        {
            "type": "function",
            "name": "transferOwnership",
            "inputs": [
                {
                    "name": "newOwner",
                    "type": "address",
                    "internalType": "address"
                }
            ],
            "outputs": [],
            "stateMutability": "nonpayable"
        },
        {
            "type": "function",
            "name": "unpause",
            "inputs": [],
            "outputs": [],
            "stateMutability": "nonpayable"
        },
        {
            "type": "function",
            "name": "upgradeToAndCall",
            "inputs": [
                {
                    "name": "newImplementation",
                    "type": "address",
                    "internalType": "address"
                },
                {
                    "name": "data",
                    "type": "bytes",
                    "internalType": "bytes"
                }
            ],
            "outputs": [],
            "stateMutability": "payable"
        },
        {
            "type": "function",
            "name": "version",
            "inputs": [],
            "outputs": [
                {
                    "name": "",
                    "type": "uint256",
                    "internalType": "uint256"
                }
            ],
            "stateMutability": "view"
        },
        {
            "type": "event",
            "name": "Initialized",
            "inputs": [
                {
                    "name": "version",
                    "type": "uint64",
                    "indexed": false,
                    "internalType": "uint64"
                }
            ],
            "anonymous": false
        },
        {
            "type": "event",
            "name": "OwnershipTransferred",
            "inputs": [
                {
                    "name": "previousOwner",
                    "type": "address",
                    "indexed": true,
                    "internalType": "address"
                },
                {
                    "name": "newOwner",
                    "type": "address",
                    "indexed": true,
                    "internalType": "address"
                }
            ],
            "anonymous": false
        },
        {
            "type": "event",
            "name": "Paused",
            "inputs": [
                {
                    "name": "account",
                    "type": "address",
                    "indexed": false,
                    "internalType": "address"
                }
            ],
            "anonymous": false
        },
        {
            "type": "event",
            "name": "TokenLocked",
            "inputs": [
                {
                    "name": "user",
                    "type": "address",
                    "indexed": true,
                    "internalType": "address"
                },
                {
                    "name": "tokenAddress",
                    "type": "address",
                    "indexed": false,
                    "internalType": "address"
                },
                {
                    "name": "amount",
                    "type": "uint256",
                    "indexed": false,
                    "internalType": "uint256"
                },
                {
                    "name": "lockId",
                    "type": "uint256",
                    "indexed": false,
                    "internalType": "uint256"
                },
                {
                    "name": "timestamp",
                    "type": "uint256",
                    "indexed": false,
                    "internalType": "uint256"
                }
            ],
            "anonymous": false
        },
        {
            "type": "event",
            "name": "Unpaused",
            "inputs": [
                {
                    "name": "account",
                    "type": "address",
                    "indexed": false,
                    "internalType": "address"
                }
            ],
            "anonymous": false
        },
        {
            "type": "event",
            "name": "Upgraded",
            "inputs": [
                {
                    "name": "implementation",
                    "type": "address",
                    "indexed": true,
                    "internalType": "address"
                }
            ],
            "anonymous": false
        },
        {
            "type": "error",
            "name": "AddressEmptyCode",
            "inputs": [
                {
                    "name": "target",
                    "type": "address",
                    "internalType": "address"
                }
            ]
        },
        {
            "type": "error",
            "name": "ERC1967InvalidImplementation",
            "inputs": [
                {
                    "name": "implementation",
                    "type": "address",
                    "internalType": "address"
                }
            ]
        },
        {
            "type": "error",
            "name": "ERC1967NonPayable",
            "inputs": []
        },
        {
            "type": "error",
            "name": "EnforcedPause",
            "inputs": []
        },
        {
            "type": "error",
            "name": "ExpectedPause",
            "inputs": []
        },
        {
            "type": "error",
            "name": "FailedCall",
            "inputs": []
        },
        {
            "type": "error",
            "name": "InvalidInitialization",
            "inputs": []
        },
        {
            "type": "error",
            "name": "NotInitializing",
            "inputs": []
        },
        {
            "type": "error",
            "name": "OwnableInvalidOwner",
            "inputs": [
                {
                    "name": "owner",
                    "type": "address",
                    "internalType": "address"
                }
            ]
        },
        {
            "type": "error",
            "name": "OwnableUnauthorizedAccount",
            "inputs": [
                {
                    "name": "account",
                    "type": "address",
                    "internalType": "address"
                }
            ]
        },
        {
            "type": "error",
            "name": "UUPSUnauthorizedCallContext",
            "inputs": []
        },
        {
            "type": "error",
            "name": "UUPSUnsupportedProxiableUUID",
            "inputs": [
                {
                    "name": "slot",
                    "type": "bytes32",
                    "internalType": "bytes32"
                }
            ]
        }
    ],
    "bytecode": {
        "object": "0x60a060405230608052348015601357600080fd5b5060805161152361003d60003960008181610c9301528181610cbc0152610e6301526115236000f3fe6080604052600436106101355760003560e01c80638456cb59116100ab578063ad3cb1cc1161006f578063ad3cb1cc14610393578063c0c53b8b146103d1578063c33a5129146103f1578063e0549bbf14610411578063e63ea4081461042f578063f2fde38b1461044f57600080fd5b80638456cb59146102eb57806387343e93146103005780638da5cb5b146103205780638db564c21461035d5780639f13f76d1461037357600080fd5b80634f1ef286116100fd5780634f1ef286146101db57806351b98492146101ee57806352d1902d1461026d57806354fd4d50146102905780635c975abb146102a6578063715018a6146102d657600080fd5b8063282d3fdf1461013a5780633180bb2a1461014f5780633f4ba83a14610186578063408def1e1461019b57806340bd42cc146101bb575b600080fd5b61014d61014836600461121a565b61046f565b005b34801561015b57600080fd5b506001546001600160a01b03165b6040516001600160a01b0390911681526020015b60405180910390f35b34801561019257600080fd5b5061014d610754565b3480156101a757600080fd5b5061014d6101b6366004611244565b610766565b3480156101c757600080fd5b50600054610169906001600160a01b031681565b61014d6101e9366004611273565b6107c3565b3480156101fa57600080fd5b50610240610209366004611244565b60046020526000908152604090208054600182015460028301546003909301546001600160a01b0392831693919092169160ff1684565b604080516001600160a01b039586168152949093166020850152918301521515606082015260800161017d565b34801561027957600080fd5b506102826107e2565b60405190815260200161017d565b34801561029c57600080fd5b5061028260035481565b3480156102b257600080fd5b506000805160206114ce8339815191525460ff16604051901515815260200161017d565b3480156102e257600080fd5b5061014d6107ff565b3480156102f757600080fd5b5061014d610811565b34801561030c57600080fd5b5061014d61031b36600461133d565b610821565b34801561032c57600080fd5b507f9016d09d72d40fdae2fd8ceac6b6234c7706214fd39c1cd1e609a0528c199300546001600160a01b0316610169565b34801561036957600080fd5b5061028260025481565b34801561037f57600080fd5b50600154610169906001600160a01b031681565b34801561039f57600080fd5b506103c4604051806040016040528060058152602001640352e302e360dc1b81525081565b60405161017d919061137c565b3480156103dd57600080fd5b5061014d6103ec3660046113af565b6108a1565b3480156103fd57600080fd5b5061014d61040c36600461133d565b610a59565b34801561041d57600080fd5b506000546001600160a01b0316610169565b34801561043b57600080fd5b5061014d61044a3660046113f2565b610ad9565b34801561045b57600080fd5b5061014d61046a36600461133d565b610b5e565b610477610b9c565b6000546001600160a01b03838116911614806104a057506001546001600160a01b038381169116145b6104e95760405162461bcd60e51b8152602060048201526015602482015274496e76616c696420746f6b656e206164647265737360581b60448201526064015b60405180910390fd5b600081116105395760405162461bcd60e51b815260206004820152601d60248201527f416d6f756e74206d7573742062652067726561746572207468616e203000000060448201526064016104e0565b604051636eb1769f60e11b8152336004820152306024820152829082906001600160a01b0383169063dd62ed3e90604401602060405180830381865afa158015610587573d6000803e3d6000fd5b505050506040513d601f19601f820116820180604052508101906105ab919061142f565b10156105ed5760405162461bcd60e51b8152602060048201526011602482015270416c6c6f77616e636520746f6f206c6f7760781b60448201526064016104e0565b6040516323b872dd60e01b8152336004820152306024820152604481018390526001600160a01b038216906323b872dd906064016020604051808303816000875af1158015610640573d6000803e3d6000fd5b505050506040513d601f19601f820116820180604052508101906106649190611448565b50600280549060006106758361146a565b9091555050600280546040805160808082018352338083526001600160a01b0389811660208086018281528688018c815260006060808a018281528c835260048652918b902099518a549088166001600160a01b0319918216178b55935160018b01805491909816941693909317909555519987019990995591516003909501805495151560ff1990961695909517909455845193845283018890529282018490524294820194909452919290917f6edd85519fe7bf8ae3e7c89e6378ac3a3a4c787c65e56793bf70c12fafffb158910160405180910390a250505050565b61075c610bcd565b610764610c28565b565b61076e610bcd565b600081116107be5760405162461bcd60e51b815260206004820152601e60248201527f56657273696f6e206d7573742062652067726561746572207468616e2030000060448201526064016104e0565b600355565b6107cb610c88565b6107d482610d2d565b6107de8282610d96565b5050565b60006107ec610e58565b506000805160206114ae83398151915290565b610807610bcd565b6107646000610ea1565b610819610bcd565b610764610f12565b610829610bcd565b6001600160a01b03811661087f5760405162461bcd60e51b815260206004820152601e60248201527f43616e6e6f742073657420746f20746865207a65726f2061646472657373000060448201526064016104e0565b600080546001600160a01b0319166001600160a01b0392909216919091179055565b7ff0c57e16840df040f15088dc2f81fe391c3923bec73e23a9662efc9c229c6a008054600160401b810460ff16159067ffffffffffffffff166000811580156108e75750825b905060008267ffffffffffffffff1660011480156109045750303b155b905081158015610912575080155b156109305760405163f92ee8a960e01b815260040160405180910390fd5b845467ffffffffffffffff19166001178555831561095a57845460ff60401b1916600160401b1785555b6001600160a01b0388161580159061097a57506001600160a01b03871615155b6109be5760405162461bcd60e51b8152602060048201526015602482015274496e76616c696420746f6b656e206164647265737360581b60448201526064016104e0565b6109c786610f5b565b6109cf610f6c565b6109d7610f7c565b600080546001600160a01b03808b166001600160a01b031992831617835560018054918b16919092161781556003556002558315610a4f57845460ff60401b19168555604051600181527fc7f505b2f371ae2175ee4913f4499e1f2633a7b5936321eed1cdaeb6115181d29060200160405180910390a15b5050505050505050565b610a61610bcd565b6001600160a01b038116610ab75760405162461bcd60e51b815260206004820152601e60248201527f43616e6e6f742073657420746f20746865207a65726f2061646472657373000060448201526064016104e0565b600180546001600160a01b0319166001600160a01b0392909216919091179055565b610ae1610bcd565b60405163a9059cbb60e01b81526001600160a01b0383811660048301526024820183905284919082169063a9059cbb906044016020604051808303816000875af1158015610b33573d6000803e3d6000fd5b505050506040513d601f19601f82011682018060405250810190610b579190611448565b5050505050565b610b66610bcd565b6001600160a01b038116610b9057604051631e4fbdf760e01b8152600060048201526024016104e0565b610b9981610ea1565b50565b6000805160206114ce8339815191525460ff16156107645760405163d93c066560e01b815260040160405180910390fd5b33610bff7f9016d09d72d40fdae2fd8ceac6b6234c7706214fd39c1cd1e609a0528c199300546001600160a01b031690565b6001600160a01b0316146107645760405163118cdaa760e01b81523360048201526024016104e0565b610c30610f84565b6000805160206114ce833981519152805460ff191681557f5db9ee0a495bf2e6ff9c91a7834c1ba4fdd244a5e8aa4e537bd38aeae4b073aa335b6040516001600160a01b03909116815260200160405180910390a150565b306001600160a01b037f0000000000000000000000000000000000000000000000000000000000000000161480610d0f57507f00000000000000000000000000000000000000000000000000000000000000006001600160a01b0316610d036000805160206114ae833981519152546001600160a01b031690565b6001600160a01b031614155b156107645760405163703e46dd60e11b815260040160405180910390fd5b610d35610bcd565b6001600160a01b038116610b995760405162461bcd60e51b815260206004820152602260248201527f43616e6e6f74207570677261646520746f20746865207a65726f206164647265604482015261737360f01b60648201526084016104e0565b816001600160a01b03166352d1902d6040518163ffffffff1660e01b8152600401602060405180830381865afa925050508015610df0575060408051601f3d908101601f19168201909252610ded9181019061142f565b60015b610e1857604051634c9c8ce360e01b81526001600160a01b03831660048201526024016104e0565b6000805160206114ae8339815191528114610e4957604051632a87526960e21b8152600481018290526024016104e0565b610e538383610fb4565b505050565b306001600160a01b037f000000000000000000000000000000000000000000000000000000000000000016146107645760405163703e46dd60e11b815260040160405180910390fd5b7f9016d09d72d40fdae2fd8ceac6b6234c7706214fd39c1cd1e609a0528c19930080546001600160a01b031981166001600160a01b03848116918217845560405192169182907f8be0079c531659141344cd1fd0a4f28419497f9722a3daafe3b4186f6b6457e090600090a3505050565b610f1a610b9c565b6000805160206114ce833981519152805460ff191660011781557f62e78cea01bee320cd4e420270b5ea74000d11b0c9f74754ebdbfc544b05a25833610c6a565b610f6361100a565b610b9981611053565b610f7461100a565b61076461105b565b61076461100a565b6000805160206114ce8339815191525460ff1661076457604051638dfc202b60e01b815260040160405180910390fd5b610fbd8261107c565b6040516001600160a01b038316907fbc7cd75a20ee27fd9adebab32041f755214dbc6bffa90cc0225b39da2e5c2d3b90600090a280511561100257610e5382826110e1565b6107de611157565b7ff0c57e16840df040f15088dc2f81fe391c3923bec73e23a9662efc9c229c6a0054600160401b900460ff1661076457604051631afcd79f60e31b815260040160405180910390fd5b610b6661100a565b61106361100a565b6000805160206114ce833981519152805460ff19169055565b806001600160a01b03163b6000036110b257604051634c9c8ce360e01b81526001600160a01b03821660048201526024016104e0565b6000805160206114ae83398151915280546001600160a01b0319166001600160a01b0392909216919091179055565b6060600080846001600160a01b0316846040516110fe9190611491565b600060405180830381855af49150503d8060008114611139576040519150601f19603f3d011682016040523d82523d6000602084013e61113e565b606091505b509150915061114e858383611176565b95945050505050565b34156107645760405163b398979f60e01b815260040160405180910390fd5b60608261118b57611186826111d5565b6111ce565b81511580156111a257506001600160a01b0384163b155b156111cb57604051639996b31560e01b81526001600160a01b03851660048201526024016104e0565b50805b9392505050565b8051156111e55780518082602001fd5b60405163d6bda27560e01b815260040160405180910390fd5b80356001600160a01b038116811461121557600080fd5b919050565b6000806040838503121561122d57600080fd5b611236836111fe565b946020939093013593505050565b60006020828403121561125657600080fd5b5035919050565b634e487b7160e01b600052604160045260246000fd5b6000806040838503121561128657600080fd5b61128f836111fe565b9150602083013567ffffffffffffffff8111156112ab57600080fd5b8301601f810185136112bc57600080fd5b803567ffffffffffffffff8111156112d6576112d661125d565b604051601f8201601f19908116603f0116810167ffffffffffffffff811182821017156113055761130561125d565b60405281815282820160200187101561131d57600080fd5b816020840160208301376000602083830101528093505050509250929050565b60006020828403121561134f57600080fd5b6111ce826111fe565b60005b8381101561137357818101518382015260200161135b565b50506000910152565b602081526000825180602084015261139b816040850160208701611358565b601f01601f19169190910160400192915050565b6000806000606084860312156113c457600080fd5b6113cd846111fe565b92506113db602085016111fe565b91506113e9604085016111fe565b90509250925092565b60008060006060848603121561140757600080fd5b611410846111fe565b925061141e602085016111fe565b929592945050506040919091013590565b60006020828403121561144157600080fd5b5051919050565b60006020828403121561145a57600080fd5b815180151581146111ce57600080fd5b60006001820161148a57634e487b7160e01b600052601160045260246000fd5b5060010190565b600082516114a3818460208701611358565b919091019291505056fe360894a13ba1a3210667c828492db98dca3e2076cc3735a920a3ca505d382bbccd5ed15c6e187e77e9aee88184c21f4f2182ab5827cb3b7e07fbedcd63f03300a2646970667358221220eea2aeced936d1a6161015f7c26bfbfd771432bf2fb109570fd43ebe06f28f4264736f6c634300081a0033",
        "linkReferences": {}
    },
    "methodIdentifiers": {
        "GetL()": "3180bb2a",
        "GetXL()": "e0549bbf",
        "L()": "9f13f76d",
        "UPGRADE_INTERFACE_VERSION()": "ad3cb1cc",
        "XL()": "40bd42cc",
        "emergencyWithdraw(address,address,uint256)": "e63ea408",
        "initialize(address,address,address)": "c0c53b8b",
        "lock(address,uint256)": "282d3fdf",
        "lockCounter()": "8db564c2",
        "lockRecords(uint256)": "51b98492",
        "owner()": "8da5cb5b",
        "pause()": "8456cb59",
        "paused()": "5c975abb",
        "proxiableUUID()": "52d1902d",
        "renounceOwnership()": "715018a6",
        "setLTokenAddress(address)": "c33a5129",
        "setVersion(uint256)": "408def1e",
        "setXLTokenAddress(address)": "87343e93",
        "transferOwnership(address)": "f2fde38b",
        "unpause()": "3f4ba83a",
        "upgradeToAndCall(address,bytes)": "4f1ef286",
        "version()": "54fd4d50"
    },
    "id": 41
}